:03000000020800F3
:0C080000787FE4F6D8FD758109020847F6
:0408D3000208000A0D
:0708BE0075FFDE75FFAD229E
:0708C500E4F58475890122AE
:0A08B40043840F43A54043E34022B4
:0408D80075A882225B
:0C08A8001208BE1208B41208D80208C5DD
:03000B0002088C5C
:10088C00C0E0C28DE509150970021508E509450897
:0C089C007007F50875090AB296D0E0322A
:0708CC001208A8D28C80FE87
:10080C000208CCE493A3F8E493A34003F68001F22E
:10081C0008DFF48029E493A3F85407240CC8C333ED
:10082C00C4540F4420C8834004F456800146F6DFBC
:10083C00E4800B01020408102040809008D3E47E71
:10084C00019360BCA3FF543F30E509541FFEE493B1
:10085C00A360010ECF54C025E060A840B8E493A378
:10086C00FAE493A3F8E493A3C8C582C8CAC583CAA3
:10087C00F0A3C8C582C8CAC583CADFE9DEE780BE5B
:0108D7000020
:00000001FF
