:03000000020800F3
:0C080000787FE4F6D8FD758109020847F6
:0408D1000208000A0F
:0708C30075FFDE75FFAD2299
:0708CA00E4F58475890122A9
:0A08B90075840F75A54075E3402219
:0408D60075A882225D
:0C08AD001208C31208B91208D60208CACB
:03000B000208DA0E
:0308DA00C28D329A
:10088C001208ADC296D28C438701E5091509700296
:10089C001508E509450870EFB296F50875090A8048
:0108AC00E665
:10080C0002088CE493A3F8E493A34003F68001F26E
:10081C0008DFF48029E493A3F85407240CC8C333ED
:10082C00C4540F4420C8834004F456800146F6DFBC
:10083C00E4800B01020408102040809008D1E47E73
:10084C00019360BCA3FF543F30E509541FFEE493B1
:10085C00A360010ECF54C025E060A840B8E493A378
:10086C00FAE493A3F8E493A3C8C582C8CAC583CAA3
:10087C00F0A3C8C582C8CAC583CADFE9DEE780BE5B
:0108D5000022
:00000001FF
