:03000000020800F3
:0C080000787FE4F6D8FD75810B020847F4
:0608E900040800000000FD
:0708E20075FFDE75FFAD227A
:0A08D80075840F75A54075E34022FA
:0608F0001208E20208D824
:10088C001208F0C296E50B2401F50BE4350AF50AC3
:10089C00E43509F509E43508F5087F037EFA7D0295
:1008AC007C00AB0BAA0AA909F8C31208C770D6F5CD
:0B08BC000BF50AF509F508B29680CA9A
:10080C0002088CE493A3F8E493A34003F68001F26E
:10081C0008DFF48029E493A3F85407240CC8C333ED
:10082C00C4540F4420C8834004F456800146F6DFBC
:10083C00E4800B01020408102040809008E9E47E5B
:10084C00019360BCA3FF543F30E509541FFEE493B1
:10085C00A360010ECF54C025E060A840B8E493A378
:10086C00FAE493A3F8E493A3C8C582C8CAC583CAA3
:10087C00F0A3C8C582C8CAC583CADFE9DEE780BE5B
:0108EF000008
:1008C700EB9FF5F0EA9E42F0E99D42F0E89C45F087
:0108D70022FE
:00000001FF
